{
  "_format": "hh-sol-artifact-1",
  "contractName": "SimpleAccount",
  "sourceName": "contracts/samples/SimpleAccount.sol",
  "abi": [
    {
      "inputs": [
        {
          "internalType": "contract IEntryPoint",
          "name": "anEntryPoint",
          "type": "address"
        }
      ],
      "stateMutability": "nonpayable",
      "type": "constructor"
    },
    {
      "anonymous": false,
      "inputs": [
        {
          "indexed": false,
          "internalType": "address",
          "name": "previousAdmin",
          "type": "address"
        },
        {
          "indexed": false,
          "internalType": "address",
          "name": "newAdmin",
          "type": "address"
        }
      ],
      "name": "AdminChanged",
      "type": "event"
    },
    {
      "anonymous": false,
      "inputs": [
        {
          "indexed": false,
          "internalType": "address[]",
          "name": "target",
          "type": "address[]"
        },
        {
          "indexed": false,
          "internalType": "uint256",
          "name": "value",
          "type": "uint256"
        },
        {
          "indexed": false,
          "internalType": "bytes[]",
          "name": "data",
          "type": "bytes[]"
        }
      ],
      "name": "BatchInvoked",
      "type": "event"
    },
    {
      "anonymous": false,
      "inputs": [
        {
          "indexed": true,
          "internalType": "address",
          "name": "beacon",
          "type": "address"
        }
      ],
      "name": "BeaconUpgraded",
      "type": "event"
    },
    {
      "anonymous": false,
      "inputs": [
        {
          "indexed": false,
          "internalType": "uint8",
          "name": "version",
          "type": "uint8"
        }
      ],
      "name": "Initialized",
      "type": "event"
    },
    {
      "anonymous": false,
      "inputs": [
        {
          "indexed": true,
          "internalType": "address",
          "name": "target",
          "type": "address"
        },
        {
          "indexed": false,
          "internalType": "uint256",
          "name": "value",
          "type": "uint256"
        },
        {
          "indexed": false,
          "internalType": "bytes",
          "name": "data",
          "type": "bytes"
        }
      ],
      "name": "Invoked",
      "type": "event"
    },
    {
      "anonymous": false,
      "inputs": [
        {
          "indexed": true,
          "internalType": "address",
          "name": "sessionUser",
          "type": "address"
        },
        {
          "indexed": false,
          "internalType": "uint256",
          "name": "startFrom",
          "type": "uint256"
        },
        {
          "indexed": false,
          "internalType": "uint256",
          "name": "validUntil",
          "type": "uint256"
        },
        {
          "indexed": false,
          "internalType": "uint256",
          "name": "totalAmount",
          "type": "uint256"
        }
      ],
      "name": "SessionCreated",
      "type": "event"
    },
    {
      "anonymous": false,
      "inputs": [
        {
          "indexed": true,
          "internalType": "address",
          "name": "sessionUser",
          "type": "address"
        },
        {
          "indexed": false,
          "internalType": "uint256",
          "name": "startFrom",
          "type": "uint256"
        },
        {
          "indexed": false,
          "internalType": "uint256",
          "name": "validUntil",
          "type": "uint256"
        },
        {
          "indexed": false,
          "internalType": "uint256",
          "name": "totalAmount",
          "type": "uint256"
        },
        {
          "indexed": false,
          "internalType": "uint256",
          "name": "spentAmount",
          "type": "uint256"
        }
      ],
      "name": "SessionRemoved",
      "type": "event"
    },
    {
      "anonymous": false,
      "inputs": [
        {
          "indexed": true,
          "internalType": "contract IEntryPoint",
          "name": "entryPoint",
          "type": "address"
        },
        {
          "indexed": true,
          "internalType": "address",
          "name": "owner",
          "type": "address"
        }
      ],
      "name": "SimpleAccountInitialized",
      "type": "event"
    },
    {
      "anonymous": false,
      "inputs": [
        {
          "indexed": true,
          "internalType": "address",
          "name": "implementation",
          "type": "address"
        }
      ],
      "name": "Upgraded",
      "type": "event"
    },
    {
      "inputs": [],
      "name": "addDeposit",
      "outputs": [],
      "stateMutability": "payable",
      "type": "function"
    },
    {
      "inputs": [
        {
          "internalType": "address",
          "name": "sessionUser",
          "type": "address"
        },
        {
          "internalType": "uint256",
          "name": "startFrom",
          "type": "uint256"
        },
        {
          "internalType": "uint256",
          "name": "validUntil",
          "type": "uint256"
        },
        {
          "internalType": "uint256",
          "name": "totalAmount",
          "type": "uint256"
        }
      ],
      "name": "addSession",
      "outputs": [],
      "stateMutability": "nonpayable",
      "type": "function"
    },
    {
      "inputs": [],
      "name": "entryPoint",
      "outputs": [
        {
          "internalType": "contract IEntryPoint",
          "name": "",
          "type": "address"
        }
      ],
      "stateMutability": "view",
      "type": "function"
    },
    {
      "inputs": [
        {
          "internalType": "address",
          "name": "dest",
          "type": "address"
        },
        {
          "internalType": "uint256",
          "name": "value",
          "type": "uint256"
        },
        {
          "internalType": "bytes",
          "name": "func",
          "type": "bytes"
        }
      ],
      "name": "execute",
      "outputs": [],
      "stateMutability": "nonpayable",
      "type": "function"
    },
    {
      "inputs": [
        {
          "internalType": "address[]",
          "name": "dest",
          "type": "address[]"
        },
        {
          "internalType": "uint256[]",
          "name": "value",
          "type": "uint256[]"
        },
        {
          "internalType": "bytes[]",
          "name": "func",
          "type": "bytes[]"
        }
      ],
      "name": "executeBatch",
      "outputs": [],
      "stateMutability": "nonpayable",
      "type": "function"
    },
    {
      "inputs": [],
      "name": "getDeposit",
      "outputs": [
        {
          "internalType": "uint256",
          "name": "",
          "type": "uint256"
        }
      ],
      "stateMutability": "view",
      "type": "function"
    },
    {
      "inputs": [],
      "name": "getNonce",
      "outputs": [
        {
          "internalType": "uint256",
          "name": "",
          "type": "uint256"
        }
      ],
      "stateMutability": "view",
      "type": "function"
    },
    {
      "inputs": [
        {
          "internalType": "address",
          "name": "_sessionUser",
          "type": "address"
        }
      ],
      "name": "getSession",
      "outputs": [
        {
          "components": [
            {
              "internalType": "uint256",
              "name": "startFrom",
              "type": "uint256"
            },
            {
              "internalType": "uint256",
              "name": "validUntil",
              "type": "uint256"
            },
            {
              "internalType": "uint256",
              "name": "totalAmount",
              "type": "uint256"
            },
            {
              "internalType": "uint256",
              "name": "spentAmount",
              "type": "uint256"
            }
          ],
          "internalType": "struct SessionManager.Session",
          "name": "",
          "type": "tuple"
        }
      ],
      "stateMutability": "view",
      "type": "function"
    },
    {
      "inputs": [
        {
          "internalType": "address",
          "name": "anOwner",
          "type": "address"
        }
      ],
      "name": "initialize",
      "outputs": [],
      "stateMutability": "nonpayable",
      "type": "function"
    },
    {
      "inputs": [
        {
          "internalType": "address",
          "name": "",
          "type": "address"
        },
        {
          "internalType": "address",
          "name": "",
          "type": "address"
        },
        {
          "internalType": "uint256[]",
          "name": "",
          "type": "uint256[]"
        },
        {
          "internalType": "uint256[]",
          "name": "",
          "type": "uint256[]"
        },
        {
          "internalType": "bytes",
          "name": "",
          "type": "bytes"
        }
      ],
      "name": "onERC1155BatchReceived",
      "outputs": [
        {
          "internalType": "bytes4",
          "name": "",
          "type": "bytes4"
        }
      ],
      "stateMutability": "pure",
      "type": "function"
    },
    {
      "inputs": [
        {
          "internalType": "address",
          "name": "",
          "type": "address"
        },
        {
          "internalType": "address",
          "name": "",
          "type": "address"
        },
        {
          "internalType": "uint256",
          "name": "",
          "type": "uint256"
        },
        {
          "internalType": "uint256",
          "name": "",
          "type": "uint256"
        },
        {
          "internalType": "bytes",
          "name": "",
          "type": "bytes"
        }
      ],
      "name": "onERC1155Received",
      "outputs": [
        {
          "internalType": "bytes4",
          "name": "",
          "type": "bytes4"
        }
      ],
      "stateMutability": "pure",
      "type": "function"
    },
    {
      "inputs": [
        {
          "internalType": "address",
          "name": "",
          "type": "address"
        },
        {
          "internalType": "address",
          "name": "",
          "type": "address"
        },
        {
          "internalType": "uint256",
          "name": "",
          "type": "uint256"
        },
        {
          "internalType": "bytes",
          "name": "",
          "type": "bytes"
        }
      ],
      "name": "onERC721Received",
      "outputs": [
        {
          "internalType": "bytes4",
          "name": "",
          "type": "bytes4"
        }
      ],
      "stateMutability": "pure",
      "type": "function"
    },
    {
      "inputs": [],
      "name": "owner",
      "outputs": [
        {
          "internalType": "address",
          "name": "",
          "type": "address"
        }
      ],
      "stateMutability": "view",
      "type": "function"
    },
    {
      "inputs": [],
      "name": "proxiableUUID",
      "outputs": [
        {
          "internalType": "bytes32",
          "name": "",
          "type": "bytes32"
        }
      ],
      "stateMutability": "view",
      "type": "function"
    },
    {
      "inputs": [
        {
          "internalType": "address",
          "name": "sessionUser",
          "type": "address"
        }
      ],
      "name": "removeSession",
      "outputs": [],
      "stateMutability": "nonpayable",
      "type": "function"
    },
    {
      "inputs": [
        {
          "internalType": "bytes4",
          "name": "interfaceId",
          "type": "bytes4"
        }
      ],
      "name": "supportsInterface",
      "outputs": [
        {
          "internalType": "bool",
          "name": "",
          "type": "bool"
        }
      ],
      "stateMutability": "view",
      "type": "function"
    },
    {
      "inputs": [
        {
          "internalType": "address",
          "name": "",
          "type": "address"
        },
        {
          "internalType": "address",
          "name": "",
          "type": "address"
        },
        {
          "internalType": "address",
          "name": "",
          "type": "address"
        },
        {
          "internalType": "uint256",
          "name": "",
          "type": "uint256"
        },
        {
          "internalType": "bytes",
          "name": "",
          "type": "bytes"
        },
        {
          "internalType": "bytes",
          "name": "",
          "type": "bytes"
        }
      ],
      "name": "tokensReceived",
      "outputs": [],
      "stateMutability": "pure",
      "type": "function"
    },
    {
      "inputs": [
        {
          "internalType": "address",
          "name": "newImplementation",
          "type": "address"
        }
      ],
      "name": "upgradeTo",
      "outputs": [],
      "stateMutability": "nonpayable",
      "type": "function"
    },
    {
      "inputs": [
        {
          "internalType": "address",
          "name": "newImplementation",
          "type": "address"
        },
        {
          "internalType": "bytes",
          "name": "data",
          "type": "bytes"
        }
      ],
      "name": "upgradeToAndCall",
      "outputs": [],
      "stateMutability": "payable",
      "type": "function"
    },
    {
      "inputs": [
        {
          "components": [
            {
              "internalType": "address",
              "name": "sender",
              "type": "address"
            },
            {
              "internalType": "uint256",
              "name": "nonce",
              "type": "uint256"
            },
            {
              "internalType": "bytes",
              "name": "initCode",
              "type": "bytes"
            },
            {
              "internalType": "bytes",
              "name": "callData",
              "type": "bytes"
            },
            {
              "internalType": "uint256",
              "name": "callGasLimit",
              "type": "uint256"
            },
            {
              "internalType": "uint256",
              "name": "verificationGasLimit",
              "type": "uint256"
            },
            {
              "internalType": "uint256",
              "name": "preVerificationGas",
              "type": "uint256"
            },
            {
              "internalType": "uint256",
              "name": "maxFeePerGas",
              "type": "uint256"
            },
            {
              "internalType": "uint256",
              "name": "maxPriorityFeePerGas",
              "type": "uint256"
            },
            {
              "internalType": "bytes",
              "name": "paymasterAndData",
              "type": "bytes"
            },
            {
              "internalType": "bytes",
              "name": "signature",
              "type": "bytes"
            }
          ],
          "internalType": "struct UserOperation",
          "name": "userOp",
          "type": "tuple"
        },
        {
          "internalType": "bytes32",
          "name": "userOpHash",
          "type": "bytes32"
        },
        {
          "internalType": "uint256",
          "name": "missingAccountFunds",
          "type": "uint256"
        }
      ],
      "name": "validateUserOp",
      "outputs": [
        {
          "internalType": "uint256",
          "name": "validationData",
          "type": "uint256"
        }
      ],
      "stateMutability": "nonpayable",
      "type": "function"
    },
    {
      "inputs": [
        {
          "internalType": "address payable",
          "name": "withdrawAddress",
          "type": "address"
        },
        {
          "internalType": "uint256",
          "name": "amount",
          "type": "uint256"
        }
      ],
      "name": "withdrawDepositTo",
      "outputs": [],
      "stateMutability": "nonpayable",
      "type": "function"
    },
    {
      "stateMutability": "payable",
      "type": "receive"
    }
  ],
  "bytecode": "0x60c0346200016f57601f62002de838819003918201601f19168301916001600160401b0383118484101762000174578084926020946040528339810103126200016f57516001600160a01b03811681036200016f573060805260a05260005460ff8160081c166200011a5760ff80821603620000de575b604051612c5d90816200018b823960805181818161047c01528181610eef01526110cc015260a05181818161082a01528181610b9601528181610c7f015281816113f20152818161164201528181611892015281816122ce0152818161232d015261246e0152f35b60ff90811916176000557f7f26b83ff96e1f2b6a682f133852f6798a09c465da95921460cefb3847402498602060405160ff8152a13862000076565b60405162461bcd60e51b815260206004820152602760248201527f496e697469616c697a61626c653a20636f6e747261637420697320696e697469604482015266616c697a696e6760c81b6064820152608490fd5b600080fd5b634e487b7160e01b600052604160045260246000fdfe6080604052600436101561001b575b361561001957600080fd5b005b60003560e01c806223de29146101be57806301ffc9a7146101b5578063150b7a02146101ac5780633659cfe6146101a357806339765da51461019a5780633a871cdd1461019157806347e1da2a146101885780634a58db191461017f5780634d44560d146101765780634f1ef2861461016d57806352d1902d146101645780635c9fec4c1461015b5780638c8e13b9146101525780638da5cb5b14610149578063b0d691fe14610140578063b61d27f614610137578063bc197c811461012e578063c399ec8814610125578063c4d66de81461011c578063d087d288146101135763f23a6e610361000e5761010e6118ff565b61000e565b5061010e61180f565b5061010e6116a7565b5061010e6115c8565b5061010e611500565b5061010e611416565b5061010e6113a6565b5061010e611353565b5061010e611273565b5061010e6111a1565b5061010e611085565b5061010e610e6d565b5061010e610c20565b5061010e610b53565b5061010e610947565b5061010e6107bf565b5061010e610633565b5061010e610427565b5061010e610395565b5061010e6102a4565b5061010e610218565b73ffffffffffffffffffffffffffffffffffffffff8116036101e557565b600080fd5b9181601f840112156101e55782359167ffffffffffffffff83116101e557602083818601950101116101e557565b50346101e55760c07ffffffffffffffffffffffffffffffffffffffffffffffffffffffffffffffffc3601126101e5576102536004356101c7565b61025e6024356101c7565b6102696044356101c7565b67ffffffffffffffff6084358181116101e55761028a9036906004016101ea565b505060a4359081116101e5576100199036906004016101ea565b50346101e55760207ffffffffffffffffffffffffffffffffffffffffffffffffffffffffffffffffc3601126101e5576004357fffffffff0000000000000000000000000000000000000000000000000000000081168091036101e557807f150b7a02000000000000000000000000000000000000000000000000000000006020921490811561036b575b8115610341575b506040519015158152f35b7f01ffc9a70000000000000000000000000000000000000000000000000000000091501438610336565b7f4e2312e0000000000000000000000000000000000000000000000000000000008114915061032f565b50346101e55760807ffffffffffffffffffffffffffffffffffffffffffffffffffffffffffffffffc3601126101e5576103d06004356101c7565b6103db6024356101c7565b60643567ffffffffffffffff81116101e5576103fb9036906004016101ea565b505060206040517f150b7a02000000000000000000000000000000000000000000000000000000008152f35b50346101e55760207ffffffffffffffffffffffffffffffffffffffffffffffffffffffffffffffffc3601126101e557600435610463816101c7565b73ffffffffffffffffffffffffffffffffffffffff90817f000000000000000000000000000000000000000000000000000000000000000016916104a983301415611991565b6104d87f360894a13ba1a3210667c828492db98dca3e2076cc3735a920a3ca505d382bbc938285541614611a1c565b6104e0612acc565b604051906104ed82610d65565b600082527f4910fdfa16fed3260ed0e7147f7cc6da11a60208b5b9406d12a635614ffd91435460ff16156105275750506100199150611b4e565b6020600491604094939451928380927f52d1902d00000000000000000000000000000000000000000000000000000000825286165afa60009181610603575b506105f0576040517f08c379a000000000000000000000000000000000000000000000000000000000815260206004820152602e60248201527f45524331393637557067726164653a206e657720696d706c656d656e7461746960448201527f6f6e206973206e6f7420555550530000000000000000000000000000000000006064820152608490fd5b610019936105fe9114611ac3565b611c3a565b61062591925060203d811161062c575b61061d8183610d9d565b810190611aa7565b9038610566565b503d610613565b50346101e55760807ffffffffffffffffffffffffffffffffffffffffffffffffffffffffffffffffc3601126101e55760043561066f816101c7565b606435604435602435610680612315565b73ffffffffffffffffffffffffffffffffffffffff8416938415610761577fa7aed3b7ffe9c3d23937ca66e523b3e4f26e7e9e3b762fde00a6cdeae0a4cc649361073f61075c926106d2858711612b5c565b61071a6106dd610dde565b918683528760208401528460408401526000606084015273ffffffffffffffffffffffffffffffffffffffff166000526001602052604060002090565b9060606003918051845560208101516001850155604081015160028501550151910155565b604051938493846040919493926060820195825260208201520152565b0390a2005b60646040517f08c379a000000000000000000000000000000000000000000000000000000000815260206004820152601860248201527f534d3a20496e76616c69642073657373696f6e207573657200000000000000006044820152fd5b50346101e5577ffffffffffffffffffffffffffffffffffffffffffffffffffffffffffffffffc6060813601126101e5576004359067ffffffffffffffff82116101e5576101609082360301126101e55760443573ffffffffffffffffffffffffffffffffffffffff7f00000000000000000000000000000000000000000000000000000000000000001633036108b85761086361087b926024359060040161266f565b908061087f575b506040519081529081906020820190565b0390f35b600080808093337ffffffffffffffffffffffffffffffffffffffffffffffffffffffffffffffffff1506108b1611d79565b503861086a565b60646040517f08c379a000000000000000000000000000000000000000000000000000000000815260206004820152601c60248201527f6163636f756e743a206e6f742066726f6d20456e747279506f696e74000000006044820152fd5b9181601f840112156101e55782359167ffffffffffffffff83116101e5576020808501948460051b0101116101e557565b50346101e55760607ffffffffffffffffffffffffffffffffffffffffffffffffffffffffffffffffc3601126101e55767ffffffffffffffff6004358181116101e557610998903690600401610916565b906024358381116101e5576109b1903690600401610916565b936044359081116101e5576109ca903690600401610916565b94909160009180159182610b1f575b6109e284612456565b9288881480610b0f575b6109f590611fe4565b15610a9457505060005b858110610a555750917f3ce15f7f3b6b9e05af51ba019c3c87ef1d49edca1262901ff24e9fbbd194f7349591610a41935b610a46575b604051958695866120ce565b0390a1005b610a508133612be7565b610a35565b80610a8a610a6f610a6a610a8f948a8a611fb1565b612049565b610a84610a7d848c8a6120a4565b3691610e36565b90612a8d565b611f47565b6109ff565b60009794939291975b878110610ad55750507f3ce15f7f3b6b9e05af51ba019c3c87ef1d49edca1262901ff24e9fbbd194f734965090610a41939291610a30565b80610a8a610aea610a6a610b0a948c8c611fb1565b610af5838d87611fb1565b35610b04610a7d858c8c6120a4565b91612ab5565b610a9d565b5080816109ec57508289146109ec565b835b878110610b2e57506109d9565b93610b48610b4e91610b41878686611fb1565b3590611fcf565b94611f47565b610b21565b506000807ffffffffffffffffffffffffffffffffffffffffffffffffffffffffffffffffc360112610c1d5773ffffffffffffffffffffffffffffffffffffffff7f00000000000000000000000000000000000000000000000000000000000000001681813b15610c1d57602491604051928380927fb760faf900000000000000000000000000000000000000000000000000000000825230600483015234905af18015610c10575b610c04575080f35b610c0d90610d28565b80f35b610c18611ab6565b610bfc565b80fd5b50346101e557600060407ffffffffffffffffffffffffffffffffffffffffffffffffffffffffffffffffc360112610c1d57600435610c5e816101c7565b610c66612acc565b8173ffffffffffffffffffffffffffffffffffffffff807f00000000000000000000000000000000000000000000000000000000000000001692833b15610cf4576044908360405195869485937f205c287800000000000000000000000000000000000000000000000000000000855216600484015260243560248401525af18015610c1057610c04575080f35b8280fd5b507f4e487b7100000000000000000000000000000000000000000000000000000000600052604160045260246000fd5b67ffffffffffffffff8111610d3c57604052565b610d44610cf8565b604052565b6080810190811067ffffffffffffffff821117610d3c57604052565b6020810190811067ffffffffffffffff821117610d3c57604052565b6060810190811067ffffffffffffffff821117610d3c57604052565b90601f7fffffffffffffffffffffffffffffffffffffffffffffffffffffffffffffffe0910116810190811067ffffffffffffffff821117610d3c57604052565b60405190610deb82610d49565b565b7fffffffffffffffffffffffffffffffffffffffffffffffffffffffffffffffe0601f60209267ffffffffffffffff8111610e29575b01160190565b610e31610cf8565b610e23565b929192610e4282610ded565b91610e506040519384610d9d565b8294818452818301116101e5578281602093846000960137010152565b5060407ffffffffffffffffffffffffffffffffffffffffffffffffffffffffffffffffc3601126101e557600435610ea4816101c7565b60243567ffffffffffffffff81116101e557366023820112156101e557610ed5903690602481600401359101610e36565b9073ffffffffffffffffffffffffffffffffffffffff91827f00000000000000000000000000000000000000000000000000000000000000001692610f1c84301415611991565b610f4b7f360894a13ba1a3210667c828492db98dca3e2076cc3735a920a3ca505d382bbc948286541614611a1c565b610f53612acc565b7f4910fdfa16fed3260ed0e7147f7cc6da11a60208b5b9406d12a635614ffd91435460ff1615610f895750506100199150611b4e565b6020600491604094939451928380927f52d1902d00000000000000000000000000000000000000000000000000000000825286165afa60009181611065575b50611052576040517f08c379a000000000000000000000000000000000000000000000000000000000815260206004820152602e60248201527f45524331393637557067726164653a206e657720696d706c656d656e7461746960448201527f6f6e206973206e6f7420555550530000000000000000000000000000000000006064820152608490fd5b610019936110609114611ac3565b611d19565b61107e91925060203d811161062c5761061d8183610d9d565b9038610fc8565b50346101e55760007ffffffffffffffffffffffffffffffffffffffffffffffffffffffffffffffffc3601126101e55773ffffffffffffffffffffffffffffffffffffffff7f000000000000000000000000000000000000000000000000000000000000000016300361111d576040517f360894a13ba1a3210667c828492db98dca3e2076cc3735a920a3ca505d382bbc8152602090f35b60846040517f08c379a000000000000000000000000000000000000000000000000000000000815260206004820152603860248201527f555550535570677261646561626c653a206d757374206e6f742062652063616c60448201527f6c6564207468726f7567682064656c656761746563616c6c00000000000000006064820152fd5b50346101e55760207ffffffffffffffffffffffffffffffffffffffffffffffffffffffffffffffffc3601126101e5576004356111dd816101c7565b6111e5612315565b73ffffffffffffffffffffffffffffffffffffffff16600081815260016020818152604080842080549381018054600283018054600385018054958a90559389905590889055918790558351958652938501939093529083019190915260608201529091907f1eba620106bf83f1cd0e0b1f58f61845b00a57079ab26a9a4198538f57ca0dcf90608090a280f35b50346101e55760207ffffffffffffffffffffffffffffffffffffffffffffffffffffffffffffffffc3601126101e55761087b73ffffffffffffffffffffffffffffffffffffffff6004356112c7816101c7565b6060604092839283516112d981610d49565b60009381858093528260208201528287820152015216815260016020522090600381519261130684610d49565b805484526001810154602085015260028101548385015201546060830152519182918291909160608060808301948051845260208101516020850152604081015160408501520151910152565b50346101e55760007ffffffffffffffffffffffffffffffffffffffffffffffffffffffffffffffffc3601126101e557602073ffffffffffffffffffffffffffffffffffffffff60025416604051908152f35b50346101e55760007ffffffffffffffffffffffffffffffffffffffffffffffffffffffffffffffffc3601126101e557602060405173ffffffffffffffffffffffffffffffffffffffff7f0000000000000000000000000000000000000000000000000000000000000000168152f35b50346101e55760607ffffffffffffffffffffffffffffffffffffffffffffffffffffffffffffffffc3601126101e557600435611452816101c7565b602435906044359067ffffffffffffffff82116101e55761075c9261149c7f8e084f4a28a6752a4c84a569571c55c88b5e8a28400d520311a3b501fc5e4c359336906004016101ea565b94906114a783612456565b6114bc6114b5368985610e36565b8587612ab5565b6114f1575b73ffffffffffffffffffffffffffffffffffffffff60405194859485526040602086015216956040840191611ed8565b6114fb8333612be7565b6114c1565b50346101e55760a07ffffffffffffffffffffffffffffffffffffffffffffffffffffffffffffffffc3601126101e55761153b6004356101c7565b6115466024356101c7565b67ffffffffffffffff6044358181116101e557611567903690600401610916565b50506064358181116101e557611581903690600401610916565b50506084359081116101e55761159b9036906004016101ea565b50506040517fbc197c81000000000000000000000000000000000000000000000000000000008152602090f35b50346101e55760007ffffffffffffffffffffffffffffffffffffffffffffffffffffffffffffffffc3601126101e55760206040517f70a08231000000000000000000000000000000000000000000000000000000008152306004820152818160248173ffffffffffffffffffffffffffffffffffffffff7f0000000000000000000000000000000000000000000000000000000000000000165afa90811561169a575b60009161167d575b50604051908152f35b6116949150823d811161062c5761061d8183610d9d565b38611674565b6116a2611ab6565b61166c565b50346101e55760207ffffffffffffffffffffffffffffffffffffffffffffffffffffffffffffffffc3601126101e5576004356116e3816101c7565b6117456000549161170b60ff8460081c161580948195611801575b81156117e1575b506121fe565b8261173c60017fffffffffffffffffffffffffffffffffffffffffffffffffffffffffffffff006000541617600055565b6117ab57612289565b61174b57005b6117787fffffffffffffffffffffffffffffffffffffffffffffffffffffffffffff00ff60005416600055565b604051600181527f7f26b83ff96e1f2b6a682f133852f6798a09c465da95921460cefb3847402498908060208101610a41565b6117dc6101007fffffffffffffffffffffffffffffffffffffffffffffffffffffffffffff00ff6000541617600055565b612289565b303b159150816117f3575b5038611705565b6001915060ff1614386117ec565b600160ff82161091506116fe565b50346101e55760007ffffffffffffffffffffffffffffffffffffffffffffffffffffffffffffffffc3601126101e55761087b6040517f35567e1a0000000000000000000000000000000000000000000000000000000081523060048201526000602482015260208160448173ffffffffffffffffffffffffffffffffffffffff7f0000000000000000000000000000000000000000000000000000000000000000165afa9081156118f2575b6000916118d457506040519081529081906020820190565b6118ec915060203d811161062c5761061d8183610d9d565b3861086a565b6118fa611ab6565b6118bc565b50346101e55760a07ffffffffffffffffffffffffffffffffffffffffffffffffffffffffffffffffc3601126101e55761193a6004356101c7565b6119456024356101c7565b60843567ffffffffffffffff81116101e5576119659036906004016101ea565b505060206040517ff23a6e61000000000000000000000000000000000000000000000000000000008152f35b1561199857565b60846040517f08c379a000000000000000000000000000000000000000000000000000000000815260206004820152602c60248201527f46756e6374696f6e206d7573742062652063616c6c6564207468726f7567682060448201527f64656c656761746563616c6c00000000000000000000000000000000000000006064820152fd5b15611a2357565b60846040517f08c379a000000000000000000000000000000000000000000000000000000000815260206004820152602c60248201527f46756e6374696f6e206d7573742062652063616c6c6564207468726f7567682060448201527f6163746976652070726f787900000000000000000000000000000000000000006064820152fd5b908160209103126101e5575190565b506040513d6000823e3d90fd5b15611aca57565b60846040517f08c379a000000000000000000000000000000000000000000000000000000000815260206004820152602960248201527f45524331393637557067726164653a20756e737570706f727465642070726f7860448201527f6961626c655555494400000000000000000000000000000000000000000000006064820152fd5b803b15611bb65773ffffffffffffffffffffffffffffffffffffffff7f360894a13ba1a3210667c828492db98dca3e2076cc3735a920a3ca505d382bbc91167fffffffffffffffffffffffff0000000000000000000000000000000000000000825416179055565b60846040517f08c379a000000000000000000000000000000000000000000000000000000000815260206004820152602d60248201527f455243313936373a206e657720696d706c656d656e746174696f6e206973206e60448201527f6f74206120636f6e7472616374000000000000000000000000000000000000006064820152fd5b90611c4482611b4e565b73ffffffffffffffffffffffffffffffffffffffff82167fbc7cd75a20ee27fd9adebab32041f755214dbc6bffa90cc0225b39da2e5c2d3b600080a2805115801590611d11575b611c93575050565b611d0e9160008060405193611ca785610d81565b602785527f416464726573733a206c6f772d6c6576656c2064656c65676174652063616c6c60208601527f206661696c6564000000000000000000000000000000000000000000000000006040860152602081519101845af4611d08611d79565b91611e0e565b50565b506000611c8b565b90611d2382611b4e565b73ffffffffffffffffffffffffffffffffffffffff82167fbc7cd75a20ee27fd9adebab32041f755214dbc6bffa90cc0225b39da2e5c2d3b600080a2805115801590611d7157611c93575050565b506001611c8b565b3d15611da4573d90611d8a82610ded565b91611d986040519384610d9d565b82523d6000602084013e565b606090565b15611db057565b60646040517f08c379a000000000000000000000000000000000000000000000000000000000815260206004820152601d60248201527f416464726573733a2063616c6c20746f206e6f6e2d636f6e74726163740000006044820152fd5b91929015611e315750815115611e22575090565b611e2e903b1515611da9565b90565b825190915015611e445750805190602001fd5b604051907f08c379a000000000000000000000000000000000000000000000000000000000825281602080600483015282519283602484015260005b848110611ec1575050507fffffffffffffffffffffffffffffffffffffffffffffffffffffffffffffffe0601f836000604480968601015201168101030190fd5b818101830151868201604401528593508201611e80565b601f82602094937fffffffffffffffffffffffffffffffffffffffffffffffffffffffffffffffe0938186528686013760008582860101520116010190565b507f4e487b7100000000000000000000000000000000000000000000000000000000600052601160045260246000fd5b6001907fffffffffffffffffffffffffffffffffffffffffffffffffffffffffffffffff8114611f75570190565b611f7d611f17565b0190565b507f4e487b7100000000000000000000000000000000000000000000000000000000600052603260045260246000fd5b9190811015611fc2575b60051b0190565b611fca611f81565b611fbb565b91908201809211611fdc57565b610deb611f17565b15611feb57565b60646040517f08c379a000000000000000000000000000000000000000000000000000000000815260206004820152601360248201527f77726f6e67206172726179206c656e67746873000000000000000000000000006044820152fd5b35611e2e816101c7565b9035907fffffffffffffffffffffffffffffffffffffffffffffffffffffffffffffffe1813603018212156101e5570180359067ffffffffffffffff82116101e5576020019181360383136101e557565b90916120bd928110156120c1575b60051b810190612053565b9091565b6120c9611f81565b6120b2565b909492918060608301606084525260808201959060005b8181106121c05750505060209182820152604081860391015281845280840193818360051b82010194846000925b858410612124575050505050505090565b909192939495967fffffffffffffffffffffffffffffffffffffffffffffffffffffffffffffffe082820301845287357fffffffffffffffffffffffffffffffffffffffffffffffffffffffffffffffe1843603018112156101e557830186810191903567ffffffffffffffff81116101e55780360383136101e5576121af88928392600195611ed8565b990194019401929594939190612113565b90919394959660019073ffffffffffffffffffffffffffffffffffffffff86356121e9816101c7565b168152602090810198979695019291016120e5565b1561220557565b60846040517f08c379a000000000000000000000000000000000000000000000000000000000815260206004820152602e60248201527f496e697469616c697a61626c653a20636f6e747261637420697320616c72656160448201527f647920696e697469616c697a65640000000000000000000000000000000000006064820152fd5b73ffffffffffffffffffffffffffffffffffffffff80911690817fffffffffffffffffffffffff000000000000000000000000000000000000000060025416176002557f0000000000000000000000000000000000000000000000000000000000000000167f47e55c76e7a6f1fd8996a1da8008c1ea29699cca35e7bcd057f2dec313b6e5de600080a3565b73ffffffffffffffffffffffffffffffffffffffff807f00000000000000000000000000000000000000000000000000000000000000001633149081156123bd575b501561235f57565b60646040517f08c379a000000000000000000000000000000000000000000000000000000000815260206004820152602060248201527f6163636f756e743a206e6f74204f776e6572206f7220456e747279506f696e746044820152fd5b905060025416331438612357565b156123d257565b60846040517f08c379a000000000000000000000000000000000000000000000000000000000815260206004820152603060248201527f6163636f756e743a206e6f74204f776e6572206f7220456e747279506f696e7460448201527f206f722053657373696f6e2075736572000000000000000000000000000000006064820152fd5b73ffffffffffffffffffffffffffffffffffffffff807f00000000000000000000000000000000000000000000000000000000000000001633149081156125a2575b5061259c576124e1906124cb3373ffffffffffffffffffffffffffffffffffffffff166000526001602052604060002090565b5442119081612564575b816124e6575b506123cb565b600190565b905060036125143373ffffffffffffffffffffffffffffffffffffffff166000526001602052604060002090565b0154908101809111612557575b600261254d3373ffffffffffffffffffffffffffffffffffffffff166000526001602052604060002090565b01541015386124db565b61255f611f17565b612521565b90504260016125933373ffffffffffffffffffffffffffffffffffffffff166000526001602052604060002090565b015411906124d5565b50600090565b905060025416331438612498565b906014116101e55790601490565b90929192836014116101e55783116101e557601401917fffffffffffffffffffffffffffffffffffffffffffffffffffffffffffffffec0190565b7fffffffffffffffffffffffffffffffffffffffff000000000000000000000000903581811693926014811061262e57505050565b60140360031b82901b16169150565b9060405161264a81610d49565b6060600382948054845260018101546020850152600281015460408501520154910152565b906126a3907f19457468657265756d205369676e6564204d6573736167653a0a333200000000600052601c52603c60002090565b90610140810160416126b58284612053565b9050146127965761276461274b612713610a7d61270c856127066127006126fa6126f473ffffffffffffffffffffffffffffffffffffffff9a8c612053565b906125b0565b906125f9565b60601c90565b97612053565b80916125be565b6127456127408673ffffffffffffffffffffffffffffffffffffffff166000526001602052604060002090565b61263d565b956127eb565b73ffffffffffffffffffffffffffffffffffffffff1690565b9116036127905780514210908115612781575b506124e157600090565b90506020429101511038612777565b50600190565b61274b73ffffffffffffffffffffffffffffffffffffffff92936127d9610a7d6127df9461270660025473ffffffffffffffffffffffffffffffffffffffff1690565b906127eb565b9116036124e157600090565b611e2e916127f8916129c2565b919091612839565b6005111561280a57565b7f4e487b7100000000000000000000000000000000000000000000000000000000600052602160045260246000fd5b61284281612800565b8061284a5750565b61285381612800565b600181036128ba576040517f08c379a000000000000000000000000000000000000000000000000000000000815260206004820152601860248201527f45434453413a20696e76616c6964207369676e617475726500000000000000006044820152606490fd5b6128c381612800565b6002810361292a576040517f08c379a000000000000000000000000000000000000000000000000000000000815260206004820152601f60248201527f45434453413a20696e76616c6964207369676e6174757265206c656e677468006044820152606490fd5b80612936600392612800565b1461293d57565b6040517f08c379a000000000000000000000000000000000000000000000000000000000815260206004820152602260248201527f45434453413a20696e76616c6964207369676e6174757265202773272076616c60448201527f75650000000000000000000000000000000000000000000000000000000000006064820152608490fd5b9060418151146000146129ec576120bd916020820151906060604084015193015160001a906129f6565b5050600090600290565b9291907f7fffffffffffffffffffffffffffffff5d576e7357a4501ddfe92f46681b20a08311612a815791608094939160ff602094604051948552168484015260408301526060820152600093849182805260015afa15612a74575b815173ffffffffffffffffffffffffffffffffffffffff811615612790579190565b612a7c611ab6565b612a52565b50505050600090600390565b600091829182602083519301915af1612aa4611d79565b9015612aad5750565b602081519101fd5b916000928392602083519301915af1612aa4611d79565b73ffffffffffffffffffffffffffffffffffffffff6002541633148015612b53575b15612af557565b60646040517f08c379a000000000000000000000000000000000000000000000000000000000815260206004820152600a60248201527f6f6e6c79206f776e6572000000000000000000000000000000000000000000006044820152fd5b50303314612aee565b15612b6357565b60846040517f08c379a000000000000000000000000000000000000000000000000000000000815260206004820152602d60248201527f534d3a2076616c6964556e74696c206d7573742062652067726561746572207460448201527f68616e20737461727446726f6d000000000000000000000000000000000000006064820152fd5b73ffffffffffffffffffffffffffffffffffffffff16600052600160205260036040600020018054918201809211612c1c5755565b612c24611f17565b5556fea26469706673582212207c0cc578ffdb85f6a4b814d134fd0a00770af82bfbf478f98377d9f0ea2fee4564736f6c63430008110033",
  "linkReferences": {},
  "deployedLinkReferences": {}
}